:10000000E0C700000C940C080C940C080C940C082D
:100010000C940C080C940C08FFC70000FDC70000EE
:10002000FBC70000F9C700000C94FF5B0C94795AE1
:10003000F3C700000C94B20E0C94C50E0C94860EFF
:10004000EBC700000C94B128E7C70000E5C700002B
:10005000E3C70000E1C70000DFC700000C94C059EF
:10006000DBC70000D9C70000D7C70000D5C7000014
:10007000D3C70000D1C70000CFC70000CDC7000024
:10008000CBC70000C9C70000C7C70000C5C7000034
:10009000C3C70000C1C70000084AD73B3BCE016E72
:1000A00084BCBFFDC12F3D6C74319ABD56833DDACF
:1000B0003D00C77F11BED9E4BB4C3E916BAAAABEDE
:1000C000000000803F05A84CCDB2D44EB93836A907
:1000D000020C50B9918688083CA6AAAA2ABE000044
:1000E00000803F2000200020002000200020004D44
:1000F00054454D503A00504944204175746F747511
:100100006E652066696E6973686564202120506C95
:1001100061636520746865204B702C204B692061F9
:100120006E64204B6420636F6E7374616E74732011
:10013000696E2074686520636F6E666967757261A9
:1001400074696F6E2E680D0A005049442041757421
:100150006F74756E65206661696C656421207469D1
:100160006D656F75740D0A0020403A006F6B205466
:100170003A00504944204175746F74756E6520666D
:1001800061696C6564212054656D70657261747578
:10019000726520746F20686967680D0A0020434605
:1001A00047204B643A200020434647204B693A20C1
:1001B0000020434647204B703A200020536F6D6566
:1001C000206F76657273686F6F74200D0A0020438C
:1001D0004647204B643A200020434647204B693A6B
:1001E000200020434647204B703A200020436C619A
:1001F00073696320504944200D0A002054753A2049
:1002000000204B753A2000206D61783A2000206D67
:10021000696E3A200020643A200020626961733AD6
:100220002000504944204175746F74756E652073C9
:10023000746172740D0A007C3C3E5E2B3D3F2F5B67
:100240005D3B2C2A225C0024F404D9201BC40C5CE6
:100250000E9804C4095F0265077101F405F900FBFB
:1002600004B30048048700C1036900580355000324
:10027000034500BE023A008402310053022A0029DD
:1002800002250004022000E4011C00C8011900AF8F
:10029000011700980114008401130071011000611E
:1002A00001100051010E0043010D0036010B002B1F
:1002B000010B0020010B00150109000C01090003CE
:1002C000010800FB000800F3000800EB000700E451
:1002D000000600DE000600D8000600D2000600CCB2
:1002E000000500C7000500C2000500BD000400B9FC
:1002F000000400B5000400B1000400AD000400A932
:10030000000400A5000300A20003009F0004009B5E
:100310000003009800030095000200930003009082
:100320000003008D0002008B00030088000200869D
:1003300000020084000300810002007F0002007DB3
:100340000002007B000200790002007700010076C5
:100350000002007400020072000100710002006FD0
:100360000002006D0001006C0002006A00010069DB
:1003700000020067000100660001006500010064E2
:100380000002006200010061000100600001005FE6
:100390000002005D0001005C0001005B0001005AEA
:1003A00000010059000100580001005700010056EB
:1003B00000010055000100540001005300000053EB
:1003C0000001005200010051000100500001004FE7
:1003D0000001004E0000004E0001004D0001004CE5
:1003E0000001004B0000004B0001004A00010049E1
:1003F00000010048000000480001004700010046DD
:1004000000000046000100450000004500010044D6
:1004100000010043000000430001004200000042D0
:100420000001004100000041000100400001003FC8
:100430000000003F0001003E0000003E0001003DC2
:100440000000003D0001003C0000003C0000003CBA
:100450000001003B0000003B0001003A0000003AB0
:1004600000010039000000390001003800000038A8
:10047000000000380001003700000037000100369E
:100480000000003600000036000100350000003595
:10049000000000350001003400000034000000348A
:1004A000000100330000003300000033000100327F
:1004B0000000003200000032000100310000003175
:1004C000000000310001003000000030000000306A
:1004D0000001002F0000002F0000002F0000002F5F
:1004E0000001002E0000002E0000002E0001002D53
:1004F0000000002D0000002D0000002D0001002C48
:100500000000002C0000002C0000002C0001002B3B
:100510000000002B0000002B0000002B0001002A2F
:100520000000002A0000002A0000002A0001002923
:100530000000002900000029000000290000002917
:10054000000100280000002800000028000000280A
:1005500000000028000100270000002700000027FD
:1005600000000027000000270001002600000026F0
:1005700000000026000000260000002600010025E3
:1005800000000025000000250000002500000025D7
:1005900000000025000100240000002400000024C9
:1005A00000000024000000240001002300000023BC
:1005B00000000023000000230000002300000023AF
:1005C00000000023000100220000002200000022A1
:1005D0000000002200000022000000220001002193
:1005E0000000002100000021000000210000002187
:1005F0000000002100000021000100200000002078
:10060000000000200000002000000020000000206A
:1006100000000020000000200001001F0000001F5B
:100620000000001F0000001F0000001F0000001F4E
:100630000000001F0001001E0000001E0000001E40
:100640000000001E00000024F4D43050C38E20C2ED
:10065000A24017828B7011127A910D816CD90AA871
:1006600061E108C7586607615143061E4B5D05C12D
:1006700045A7041A411104093D980371393103401B
:1006800036DB0265339102D4305402802E1D0263A2
:100690002CEE01752AC501B028A001102781018F19
:1006A0002564012B244B01E0223401AC211F018D74
:1006B000200D01801FFC00841EED00971DDF00B897
:1006C0001CD200E61BC600201BBC00641AB200B29C
:1006D00019A8000A19A0006A189900D117910040C2
:1006E000178B00B516840031167E00B31579003AD9
:1006F000157300C7146F0058146A00EE1366008863
:1007000013630025135E00C7125B006C12570015BF
:10071000125400C111510070114F0021114B00D62D
:100720001049008D1047004610440002104200C0DE
:100730000F4000800F3E00420F3C00060F3B00CBF5
:100740000E3800930E37005C0E3500270E3400F390
:100750000D3200C10D3100900D3000600D2E0032C1
:100760000D2D00050D2C00D90C2B00AE0C29008599
:100770000C29005C0C2700350C27000E0C2600E825
:100780000B2400C40B2400A00B23007D0B23005A74
:100790000B2100390B2100180B2000F80A1F00D98B
:1007A0000A1E00BB0A1E009D0A1D00800A1D006370
:1007B0000A1C00470A1B002C0A1B00110A1A00F72A
:1007C000091A00DD091900C4091900AB09190092C2
:1007D0000917007B091800630917004C0916003639
:1007E000091600200916000A091500F5081500E091
:1007F000081400CC081400B8081400A408140090D1
:100800000813007D0812006B0813005808120046F8
:100810000812003408110023081100120811000109
:10082000081100F0071000E0071000D0071000C00A
:10083000071000B0070F00A107100091070E0083FA
:10084000070F0074070F0065070E0057070E0049D9
:10085000070E003B070D002E070E0020070D0013AA
:10086000070D0006070D00F9060C00ED060D00E06F
:10087000060C00D4060C00C8060C00BC060C00B028
:10088000060C00A4060B0099060C008D060B0082D6
:10089000060B0077060B006C060B0061060A00577A
:1008A000060B004C060A0042060A0038060A002E13
:1008B000060A0024060A001A060A001006090007A4
:1008C000060A00FD050900F4050900EB050900E230
:1008D000050900D9050900D0050900C7050900BEB2
:1008E000050900B5050800AD050800A50509009C2F
:1008F000050800940508008C050800840508007CA4
:10090000050800740508006C050700650508005D12
:10091000050700560508004E05070047050700407B
:1009200005080038050700310507002A05070023E0
:100930000507001C050600160507000F050700083F
:1009400005060002050700FB040600F5040700EE9B
:10095000040600E8040600E2040700DB040600D5F4
:10096000040600CF040600C9040600C3040600BD47
:10097000040600B7040600B1040500AC040600A696
:10098000040600A00405009B0406009504050090E1
:100990000406008A04050085040500800406007A28
:1009A00004050075040500700405006B040500666D
:1009B000040500610405005C0405005704050052AD
:1009C0000405004D04050048040500430405003EED
:1009D0000404003A04050035040500300404002C2A
:1009E00004050027040400230405001E0404001A63
:1009F00004040016040500110404000D0404000999
:100A00000405000404040000040400FC030400F8CE
:100A1000030400F4030400F0030400EC030400E802
:100A2000030400E4030400E0030400DC030400D832
:100A3000030400D4030400D0030400CC030400C862
:100A4000030300C50303006F6B0D0A005265736555
:100A50006E643A00446F6E65207072696E74696EE0
:100A6000672066696C650D0A006F6B0D0A004572A0
:100A7000726F723A204E6F204C696E65204E756D14
:100A8000626572207769746820636865636B73754B
:100A90006D2C204C617374204C696E653A00457270
:100AA000726F723A204E6F20436865636B73756D89
:100AB0002077697468206C696E65206E756D62655B
:100AC000722C204C617374204C696E653A0045723B
:100AD000726F723A20636865636B73756D206D6920
:100AE000736D617463682C204C617374204C696E63
:100AF000653A0053657269616C204572726F723A93
:100B0000204C696E65204E756D6265722069732098
:100B10006E6F74204C617374204C696E65204E7545
:100B20006D6265722B312C204C617374204C696EA0
:100B3000653A00446F6E6520736176696E67206662
:100B4000696C652E0D0A006F6B0D0A006572726F7D
:100B5000722077726974696E6720746F2066696CA1
:100B6000650D0A00556E6B6E6F776E20636F6D6D4D
:100B7000616E643A0D0A00467265652052616D3AF5
:100B80002000205A3A0020593A00416464686F6D91
:100B90006520583A000D0A007A5F6D696E3A007957
:100BA0005F6D696E3A00785F6D696E3A00453A0094
:100BB0005A3A00593A00583A000D0A0030303030A5
:100BC000303030302D303030302D303030302D302E
:100BD0003030302D30303030303230313430303110
:100BE000004649524D574152455F4E414D453A20CE
:100BF000537072696E746572204578706572696DA4
:100C0000656E74616C2050524F544F434F4C5F5689
:100C1000455253494F4E3A312E30204D41434849B9
:100C20004E455F545950453A4D656E64656C20459C
:100C3000585452554445525F434F554E543A310D26
:100C40000A00453A005A3A00593A00583A006F6B88
:100C5000200020423A00543A00543A0020423A0020
:100C600020403A006F6B20543A0044656C6574690B
:100C70006F6E206661696C65640D0A0046696C657B
:100C80002064656C657465640D0A00577269746947
:100C90006E6720746F2066696C653A20002E006FC5
:100CA00070656E206661696C65642C2046696C65B0
:100CB0003A20004E6F74205344207072696E74693C
:100CC0006E670D0A002F005344207072696E7469BC
:100CD0006E672062797465200066696C652E6F709E
:100CE000656E206661696C65640D0A0046696C6515
:100CF0002073656C65637465640D0A002053697A1E
:100D0000653A0046696C65206F70656E65643A00EF
:100D1000456E642066696C65206C6973740D0A0009
:100D2000426567696E2066696C65206C6973740D35
:100D30000A00202F2000506C616E204275666665A7
:100D4000722053697A653A00467265652052616D7A
:100D50003A2000537465707065722054696D657235
:100D600020696E69740D0A00506C616E6E657220A8
:100D7000496E69740D0A00536F66742050574D20F8
:100D8000496E69740D0A0053442053746172740DE6
:100D90000A0073746172740D0A000D0A00312E335B
:100DA0002E323254202F2032302E30382E32303135
:100DB0003200537072696E7465720D0A00566F6C62
:100DC000756D652073697A6520284D627974657345
:100DD000293A20000A566F6C756D6520747970652C
:100DE0002069732046415400556E6B6E6F776E0D0F
:100DF0000A00534448430D0A005344320D0A00537D
:100E000044310D0A000A4361726420747970653AB6
:100E100020006F70656E526F6F74206661696C653B
:100E2000640D0A00766F6C756D652E696E697420AD
:100E30006661696C65640D0A00534420696E6974CB
:100E4000206661696C0D0A0001290229042908291C
:100E50001029202940298029012C022C0126022654
:100E6000042608261026202640268026402C802C8A
:100E7000012302230423082310232023402380235B
:100E80000120022004200820102020204020802063
:100E9000102C202C012F022F042F082F102F202F71
:100EA000402F802F7EFE7EFD7EFB7EF77EEF7EDF75
:100EB0007EBF7E7F00010000E80E1200020000FAF3
:100EC0000E43000300003D0F0401030904410F1805
:100ED000020309045B0F1603030904730F0C0001DE
:100EE000C102018036018136120100020200002099
:100EF000C01683040001010203010902430002013C
:100F000000C03209040000010202010005240010A3
:100F1000010524010001042402060524060001073E
:100F200005820308004009040100020A00000007CE
:100F30000503024000000705840240000004030985
:100F40000418035400650065006E007300790064A6
:100F500000750069006E006F000000160355005315
:100F60000042002000530065007200690061006CBF
:100F70000000000C03310032003300340035000063
:100F800000494E46494E4954594E414ECDCCCC3D78
:100F90000AD7233C17B7D13877CC2B329595E62466
:100FA0001FB14F0A000020410000C84200401C460B
:100FB00020BCBE4CCA1B0E5AAEC59D74AA0F292E6A
:100FC000835F11241FBECFEFD0E2DEBFCDBF12E0A2
:100FD000A0E0B1E0E4EDFAEC00E00BBF02C0079046
:100FE0000D92AE3FB107D9F71BBE1DE0AEEFB2E0E8
:100FF00001C01D92A435B107E1F71FE0C2ECDFE0AC
:1010000004C02297FE010E942265CC3BD107C9F79C
:101010000E947D5C0C9468650C940000A0E0B0E038
:10102000E4E1F8E00C943765EC015B0161157105B2
:1010300019F0FB0191838083F9908F2D90E00E943D
:101040002665892BC9F7FDE2FF1621F4F990EE24FD
:10105000E39405C02BE2F21609F4F990EE248E0118
:1010600001501040C80161E87FE043E050E062D2E7
:10107000892BF9F48E010E5F1F4FC80164E87FE0F1
:1010800045E050E057D2892B19F48E01095F1F4FBC
:10109000A114B10419F0F50111830083E0FC04C030
:1010A00070E090E080E813C070E090E080E86FEFBF
:1010B00007C1C80169E87FE043E050E03BD2892BDB
:1010C00069F4A114B10429F470E090E080EC6FE7BA
:1010D000F7C02296F501D183C083F6CF88249924E6
:1010E00040E050E060E070E0EF2DE053EA30A0F522
:1010F000F2E0EF2A8E2D90E09C0128703070E2FE25
:1011000006C0232B79F50894811C911C2BC0232B3E
:1011100019F0089481089108DB01CA0112E0880FD8
:10112000991FAA1FBB1F1A95D1F7480F591F6A1F95
:101130007B1F440F551F661F771F4E0F511D611DEA
:10114000711D483929E9520729E9620729E1720727
:1011500048F084E0E82A06C0EE3F31F4E3FC39C0F1
:1011600098E0E92AF990C0CFE53311F0E53189F52F
:1011700029912D3219F4E0E1EE2A05C02B3219F045
:1011800081E090E003C0299182E090E0E22FE053FB
:10119000EA3018F0C81BD90B1CC020E030E0FCE09E
:1011A00020383F075CF4C901880F991F880F991FE9
:1011B000280F391F220F331F2E0F311DE991E053E5
:1011C000EA3068F3E4FE03C0309521953F4F820E6C
:1011D000931ECE2CDD24E1FE07C0A114B10421F042
:1011E0002197F501D183C083CB01BA010E947F61B1
:1011F0007B018C01F3E0CF22DD2423E0C216D10471
:1012000021F417FB109517F9109557016801C801D3
:10121000B70120E030E040E050E00E94DF6088232A
:1012200009F44AC097FE0DC020EAE22E2FE0F22E0C
:101230009094819491089394C0E2D0E000E010E093
:1012400012C098EBE92E9FE0F92EF6CFF701259119
:10125000359145915491C601B5010E94BF635B0170
:101260006C018C1A9D0A8C169D0684F7D595C7953E
:101270000F5F1F4F0630110529F08CEF9FEFE80E2E
:10128000F91EF1CFC501D6017C018D018C2D880F8F
:101290008D2D881F8F3F51F0C601B50120E030E051
:1012A00040E050E00E94DF60882331F482E290E069
:1012B0009093530D8093520D7E2D9F2D802F612F83
:1012C000272F392F482F562FB901CA01CDB7DEB7C6
:1012D000ECE00C9453652F923F925F926F927F9255
:1012E0008F929F92AF92BF92CF92DF92EF92FF9236
:1012F0000F931F93CF93DF938C011B01EA016115BC
:10130000710519F0FB0191838083209749F0CE018C
:101310000297839728F020E030E040E050E0F6C0EC
:10132000F801A1908F018A2D90E00E942665892BFB
:10133000B9F7FDE2AF1631F4F801A1908F01552401
:10134000539407C0FBE2AF1619F4F801A1908F0186
:101350005524209719F0C031D105C1F4F0E3AF1640
:1013600079F4F8018081883711F0883549F4F80163
:10137000A1800E5F1F4FF2E05F2AC0E1D0E006C0FF
:10138000209721F480E3A816E9F427C0C830D105DE
:1013900031F1C930D10524F4C230D10531F50CC08A
:1013A000CA30D10589F0C031D105F9F4C12CD12C56
:1013B000E12CB8E0FB2E28C0C12CD12CE12CA0E4FC
:1013C000FA2E22C0CAE0D0E0FCECCF2EFCECDF2EDF
:1013D000FCECEF2EFCE0FF2E17C0C8E0D0E0C12CE3
:1013E000D12CE12CE0E1FE2E0FC09E01442737FDF9
:1013F0004095542F60E070E080E090E80E94CF6458
:10140000C901DA016C017D0120E030E040E050E0EC
:1014100060E03E01882477FC8094982C70EDB72E14
:10142000BA0CE9E0EB1570F48A2D81548A3118F476
:1014300099ECB92E06C08A2D81568A3150F589EA79
:10144000B82EBA0C8B2D90E08C179D0714F56F3FCA
:10145000E1F0C216D306E406F506B0F0CA01B90100
:10146000A40193010E9491649B01AC012B0D311DDD
:10147000411D511D2130F0E03F07F0E04F07F0E83B
:101480005F0710F461E001C06FEFF801A1908F01D8
:10149000C5CF2114310481F0662331F00150104092
:1014A000F1011183008308C051FE1AC002501040A0
:1014B000F1011183008314C067FF12C050FC05C006
:1014C0002FEF3FEF4FEF5FE704C020E030E040E058
:1014D00050E882E290E09093530D8093520D16C035
:1014E00050FE08C050954095309521953F4F4F4F85
:1014F0005F4F0CC057FF0AC082E290E09093530DFB
:101500008093520D2FEF3FEF4FEF5FE7B901CA0114
:10151000DF91CF911F910F91FF90EF90DF90CF90CF
:10152000BF90AF909F908F907F906F905F903F9013
:101530002F900895FB01DC014150504088F08D91BF
:1015400081341CF08B350CF4805E659161341CF0A5
:101550006B350CF4605E861B611171F3990B089575
:10156000881BFCCFFB01DC0104C08D910190801928
:1015700021F441505040C8F7881B990B0895FC0195
:101580008191861721F08823D9F7992708953197FB
:10159000CF010895FB0151915523A9F0BF01DC0152
:1015A0004D9145174111E1F759F4CD01019000200B
:1015B00049F04D9140154111C9F3FB014111EFCFA5
:1015C00081E090E0019708952F923F924F925F92B1
:1015D0006F927F928F929F92AF92BF92CF92DF9243
:1015E000EF92FF920F931F93DF93CF93CDB7DEB7A8
:1015F000CB55D0400FB6F894DEBF0FBECDBF4C0127
:101600002F967FAF6EAF2F971A0160962FAF60971E
:1016100061960FAF61976296EFAE62976696ACAE39
:10162000BDAECEAEDFAE6697E22EFF24EE0CFF1C01
:10163000EE0CFF1C2A014E0C5F1C2D965FAE4EAEC9
:101640002D97D2014D905D906D907C90FC01EE0D38
:10165000FF1DC301B20120813181428153810E946B
:10166000066069AF7AAF8BAF9CAF10E0000F111F1F
:10167000000F111FF101E00FF11F2B96FFAFEEAF2E
:101680002B97A080B180C280D380F401E00FF11FBE
:10169000C601B50120813181428153810E940660DB
:1016A0006DAB7EAB8FAB98AF62962FAD6297E22F9A
:1016B000F0E0EE0FFF1FEE0FFF1FD401AE0FBF1FB4
:1016C0002D913D914D915C9129962CAF3DAF4EAF40
:1016D0005FAF29972F964EAD5FAD2F97E40FF51FA3
:1016E000608171818281938129962CAD3DAD4EAD93
:1016F0005FAD29970E94056069AB7AAB8BAB9CAB61
:101700002F96AEADBFAD2F971C968D919D910D90EC
:10171000BC91A02D25968CAF9DAFAEAFBFAF2597E6
:10172000D4011C962D913D914D915C911F9721966E
:101730002CAF3DAF4EAF5FAF2197A3019201505840
:101740002DA73EA74FA758ABD601C501B05889A712
:101750009AA7ABA7BCA72F96AEADBFAD2F97EA0E49
:10176000FB1EF701608171818281938129AD3AADC1
:101770004BAD5CAD0E9405603B014C012F964EAC19
:101780005FAC2F97040D151DD8016D917D918D9142
:101790009C912DA93EA94FA958AD0E9405605B01FF
:1017A0006C016DA57EA58FA598A9A60195010E9443
:1017B000BF637B018C0169A57AA58BA59CA5A401BB
:1017C00093010E94BF639B01AC01C801B7010E9455
:1017D00005601B012C016DA57EA58FA598A9A4010C
:1017E00093010E94BF637B018C0169A57AA58BA53B
:1017F0009CA5A60195010E94BF639B01AC01C80195
:10180000B7010E9406609B01AC01C201B1010E94B8
:1018100079605B016C0120E030E040E050E00E9424
:10182000DF60882354F4C601B5012BED3FE049EC9D
:1018300050E40E9406605B016C01E5968FADE59770
:10184000882351F0C601B5012BED3FE049EC50E48F
:101850000E9405605B016C01C601B501E4962CADE8
:101860003DAD4EAD5FADE4970E94BF6329A93AA993
:101870004BA95CA95F770E94FA627B018C012FE67D
:1018800032E143E85AE30E94DF6087FD0DC2C801E0
:10189000B7010E94BC610E94536178A76FA3672BB8
:1018A00021F4E1E0F0E0F8A7EFA34FA058A4B201C3
:1018B00080E090E00E947F617B018C01C601B50150
:1018C000A80197010E94E6606BA37CA38DA39EA351
:1018D00069A97AA98BA99CA9A80197010E94E66031
:1018E0006F8F78A389A39AA325966CAD7DAD8EAD3D
:1018F0009FAD259721962CAD3DAD4EAD5FAD2197A7
:101900000E940560A80197010E94E6606B8F7C8FA2
:101910008D8F9E8F6BA17CA18DA19EA120E030E0D8
:1019200040E05FEB0E94BF632BA13CA14DA15EA1F3
:101930000E94BF6320E030E040E85FE30E94066061
:101940006F8B788F898F9A8F62965FAC6297E52D47
:10195000F0E0EE0FFF1FEE0FFF1FCE010196E80F24
:10196000F91F29966CAC7DAC8EAC9FAC2997608238
:1019700071828282938221962CAD3DAD4EAD5FADDA
:1019800021972D873E874F87588B41E050E05A8B37
:10199000498B88246096BFAD6097AB2FB0E0AA0F4B
:1019A000BB1FAA0FBB1FA80FB91F6896BFAFAEAF72
:1019B000689761965FAC6197452C5524440C551C83
:1019C000440C551C480E591E6A965FAE4EAE6A977F
:1019D0006C96FFAFEEAF6C972EC12AE0622E861494
:1019E00021F09FE0792E871411F40E940C4488E1C5
:1019F000982E98140CF446C06DA57EA58FA598A9C5
:101A00002BA13CA14DA15EA10E94BF637B018C0173
:101A100069A57AA58BA59CA52F89388D498D5A8DEE
:101A20000E94BF639B01AC01C801B7010E94066020
:101A30007B018C016DA57EA58FA598A92F89388D76
:101A4000498D5A8D0E94BF635B016C0169A57AA51F
:101A50008BA59CA52BA13CA14DA15EA10E94BF63BB
:101A60009B01AC01C601B5010E9405606DA77EA770
:101A70008FA798AB8394C701D80189A79AA7ABA772
:101A8000BCA765C029893A89B90180E090E00E942D
:101A90007F612BA13CA14DA15EA10E94BF637B0190
:101AA0008C01C8010E94E3606B8B7C8B8D8B9E8BBD
:101AB000B701C8010E9422643B014C012D96AEADD6
:101AC000BFAD2D97ED90FD900D911C9117FB1095DA
:101AD00017F910952B96EEADFFAD2B972080318036
:101AE00042805380C801B7012B893C894D895E89AA
:101AF0000E94BF635B016C01C201B101A4019301AB
:101B00000E94BF639B01AC01C601B5010E94066043
:101B10006DA77EA78FA798ABC801B701A401930159
:101B20000E94BF637B018C01C201B1012B893C89FA
:101B30004D895E890E94BF639B01AC01C801B7015A
:101B40000E94056069A77AA78BA79CA7882469AD26
:101B50007AAD8BAD9CAD2DA53EA54FA558A90E9491
:101B600006606896AEADBFAD68976D937D938D931B
:101B70009C9313976DA97EA98FA998AD29A53AA525
:101B80004BA55CA50E9406606A96EEADFFAD6A9714
:101B900060837183828393836C96AEADBFAD6C9787
:101BA0006D917D918D919C912F8D38A149A15AA164
:101BB0000E9406606C96EEADFFAD6C9760837183FA
:101BC000828393836B8D7C8D8D8D9E8D2D853E853F
:101BD0004F8558890E9406605B016C01CB01D601DC
:101BE0008D879E87AF87B88B00D000D069817A81BE
:101BF0008B819C812D813E814F815885E984FA84B7
:101C00000B851C8566964CAC5DAC6EAC7FAC669764
:101C1000ADB7BEB711964D925D926D927C921497BE
:101C20000E949B33E989FA893196FA8BE98B0F90F0
:101C30000F900F900F9049885A886FA078A446148F
:101C4000570408F4CACE00D000D02F96AEADBFAD79
:101C50002F976D917D918D919C91139714962D9155
:101C60003D914D915C9117971896ED90FD900D91D7
:101C70001C911B971C96AD90BD90CD90DC901F974A
:101C800066964CAC5DAC6EAC7FAC6697ADB7BEB73C
:101C900011964D925D926D927C9214970E949B33A7
:101CA0000F900F900F900F90C55ADF4F0FB6F8941A
:101CB000DEBF0FBECDBFCF91DF911F910F91FF907F
:101CC000EF90DF90CF90BF90AF909F908F907F90DC
:101CD0006F905F904F903F902F90089581E087BB69
:101CE00085E08093B1001092B000E0E7F0E08081E1
:101CF0008160808390E89093B300808182608083CC
:101D00009093B40080818460808308951F920F9225
:101D10000FB60F9211248F9380911403823040F0FC
:101D2000459A809114038E3F20F48091140302C0E1
:101D3000459880EC8093B30080912303823040F07B
:101D4000469A809123038E3F20F48091230302C0A2
:101D5000469880E88093B4008F910F900FBE0F904B
:101D60001F9018951F920F920FB60F9211248F9308
:101D7000809114038E3F10F0459A01C045988F91D1
:101D80000F900FBE0F901F9018951F920F920FB6D5
:101D90000F9211248F93809123038E3F10F0469A67
:101DA00001C046988F910F900FBE0F901F9018950D
:101DB000EF92FF920F931F93E0906101F090620108
:101DC00000E010E060E070EB8FEF9FEFA80197015B
:101DD0000E94F164309314012093130160E070E5D8
:101DE00080E090E0A80197010E94F1643093160111
:101DF000209315011F910F91FF90EF9008950F937D
:101E00001F93CF93DF938C01EB0181E030C0DF01A2
:101E1000AA0FBB1FAA0FBB1FAC0FBD1F12966D915F
:101E20007C911397601771070CF53197EE0FFF1F28
:101E3000EE0FFF1FEC0FFD1F228133810190F08117
:101E4000E02D021B130B8D919C918E1B9F0B621B2F
:101E5000730B9C01029FC001039F900D129F900D78
:101E600011240E94BC646E0F7F1F16C08F5FE82F85
:101E7000F0E0E417F5075CF2E417F50719F060E00D
:101E800070E00AC041505040440F551F440F551F89
:101E9000C40FD51F688179812FEF33E0261B370BE4
:101EA000C901DF91CF911F910F910895CF93DF93D7
:101EB0009B01CFEFD3E0C81BD90B81E031C0DF011C
:101EC000AA0FBB1FAA0FBB1FA20FB31F6D917C915E
:101ED0001197C617D7071CF53197EE0FFF1FEE0FAE
:101EE000FF1FE20FF31F208131810280F381E02D7B
:101EF000C21BD30B12968D919C9113978E1B9F0B37
:101F0000621B730B9C01C29FC001C39F900DD29FA7
:101F1000900D11240E94BC646E0F7F1F17C08F5F4D
:101F2000E82FF0E0E417F50754F2E417F50719F08D
:101F300060E070E00BC041505040440F551F440F0B
:101F4000551F240F351FF90162817381CB01DF9189
:101F5000CF9108950F931F930CE811E080E090E07B
:101F6000B80144E250E04BDF9093250380932403B3
:101F700083E191E0B80144E250E041DF9093270310
:101F8000809326031F910F9108950F931F938C0147
:101F9000AB01662757FD6095762F0E94485DC8010A
:101FA0000E94A15C1F910F9108958F929F92AF9212
:101FB000BF92CF92DF92EF92FF920F931F93CF9336
:101FC000DF930FB6F8948091400D9091410DA09150
:101FD000420DB091430D0FBE2091100330911103BB
:101FE0004091120350911303821B930BA40BB50B6A
:101FF0008B3F9105A105B10508F49EC00FB6F8947A
:102000008091400D9091410DA091420DB091430DF2
:102010000FBE8093100390931103A0931203B0930B
:10202000130380917C01823008F086C08FEE90E02F
:102030000E944E280FB6F8944091400D5091410DEA
:102040006091420D7091430D0FBE89E49DE02AE03E
:1020500000E00E94BD5C80917C01882389F58DEEB3
:1020600090E00E944E2880910203909103036CE857
:1020700071E044E250E01ADFAC01662757FD60953D
:10208000762F89E49DE00E94485D8BEE90E00E94EF
:102090004E284091000350910103662757FD60953B
:1020A000762F89E49DE00E94485D89EE90E00E94D1
:1020B0004E28609121037091220389E49DE03BC08A
:1020C00087EE90E00E944E288091060390910703CE
:1020D0006CE871E044E250E0E9DEAC01662757FDB0
:1020E0006095762F89E49DE00E94485D85EE90E042
:1020F0000E944E2880910403909105036CE871E0E2
:1021000044E250E0D3DEAC01662757FD6095762FA0
:1021100089E49DE00E94485D83EE90E00E944E2895
:10212000349B05C089E49DE06FEF70E004C089E452
:102130009DE060E070E029DF0FB6F8948091400DDB
:102140009091410DA091420DB091430D0FBE209191
:1021500008033091090340910A0350910B03821B3D
:10216000930BA40BB50B845F9140A040B04008F4E2
:1021700087C10FB6F8948091400D9091410DA091C8
:10218000420DB091430D0FBE809308039093090355
:10219000A0930A03B0930B0381E00E9447582FEFEE
:1021A00033E0281B390B3093030320930203809103
:1021B0000F01909110018217930724F430931001BE
:1021C00020930F0180911101909112012817390776
:1021D00024F43093120120931101809124039091F3
:1021E00025038217930744F01092FF021092FE021B
:1021F000109201031092000380912603909127030F
:102200002817390744F01092FF021092FE02109234
:10221000010310920003C9016CE871E044E250E050
:1022200045DE5C01E0900003F0900103E701C81B6C
:10223000D90BD0932003C0931F0380901703909075
:1022400018039093180380931703BE01882777FD26
:102250008095982F20915F013091600140E050E01F
:102260000E94916420E031E040E050E00E94F1647F
:10227000690130931A03209319030027F7FC009596
:10228000102FC801B7012BEB30E040E050E00E9476
:102290009164672F782F892F992787FD9A9581E080
:1022A0006A3178071CF02FEF30E003C09B012B51FF
:1022B0003040C20ED31ED0922203C0922103CE31F1
:1022C000D105C4F580911503909116038C0F9D1FC5
:1022D0002091130130911401821793074CF0409123
:1022E0001501509116019C01481759070CF49A01E9
:1022F0003093160320931503B901882777FD809545
:10230000982F209161013091620140E050E00E94DD
:10231000916420E031E040E050E00E94F164C901A6
:1023200030931C0320931B038C0D9D1D909322035F
:1023300080932103CE01D7FF03C0909581959F4FD5
:10234000823591051CF4C1E0D0E007C061E570E082
:102350000E94BC64CB01C5E0D0E08A30910534F026
:1023600069E070E00E94BC64CB01229604970CF0F7
:102370002196A818B908B501882777FD8095982F70
:10238000209163013091640140E050E00E9491642B
:102390003C2F2227442737FD4095542F0E94F1649B
:1023A000A90130931E0320931D0380912103909176
:1023B0002203480F591F4F3F510519F014F04FEFFA
:1023C00050E09A0157FF02C020E030E03093220332
:1023D000209321038091FE029091FF02892B19F036
:1023E0002093140302C0109214030FB6F894809146
:1023F000400D9091410DA091420DB091430D0FBE43
:1024000020910C0330910D0340910E0350910F0366
:10241000821B930BA40BB50B88589341A040B0408E
:1024200078F10FB6F8948091400D9091410DA091F4
:10243000420DB091430D0FBE80930C0390930D039A
:10244000A0930E03B0930F0380E00E9447582FEF34
:1024500033E0281B390B3093070320930603809148
:10246000040390910503281739073CF48091240355
:10247000909125032817390714F4449801C0449A11
:10248000DF91CF911F910F91FF90EF90DF90CF9050
:10249000BF90AF909F908F900895EF92FF920F930F
:1024A0007C01AB0160E070E02AE000E00E94BD5CCE
:1024B000C7010E94A15C0F91FF90EF9008952F92A9
:1024C0003F924F925F926F927F928F929F92AF92C4
:1024D000BF92CF92DF92EF92FF920F931F93DF9301
:1024E000CF93CDB7DEB7EA970FB6F894DEBF0FBE35
:1024F000CDBF8C010FB6F8942091400D3091410D65
:102500004091420D5091430D0FBE2D8F3E8F4F8F46
:1025100058A382E292E00E944E2810930103009398
:10252000000344988D8D9E8DAF8DB8A1898F9A8FB1
:10253000AB8FBC8F8D8B9E8BAF8BB88F898B9A8B1B
:10254000AB8BBC8B20E030E040E050E02CA33DA3FF
:102550004EA35FA31AAE19AE66243FEF3BA31AA2A7
:1025600041E049A3EE246FE7262E312C412C512C5B
:1025700029863A864B865C86C801AA2797FDA095D6
:10258000BA2F8CA79DA7AEA7BFA7095C1F4F9801C4
:10259000442737FD4095542F28AB39AB4AAB5BAB92
:1025A0000FB6F8948091400D9091410DA091420D8D
:1025B000B091430D0FBE29893A894B895C89821BF2
:1025C000930BA40BB50B85369105A105B10540F120
:1025D0000FB6F8948091400D9091410DA091420D5D
:1025E000B091430D0FBE898B9A8BAB8BBC8BE39460
:1025F00081E00E944758AFEFB3E0A81BB90BCD01B3
:10260000B0930303A09302036CE871E044E250E04E
:102610004DDCE9ADFAADE80FF91FFAAFE9AF63940D
:10262000F9E0FE1508F0A2C229AD3AADB90188273C
:1026300077FD8095982F0E9481617B018C01662D2A
:1026400070E080E090E00E947F619B01AC01C801D6
:10265000B7010E94E6606CA37DA38EA39FA36CA923
:10266000772DC4012CA13DA14EA15FA10E94ED6276
:1026700018163CF08CA19DA1AEA1BFA18CAB792E08
:102680004D01C601B5012CA13DA14EA15FA10E9443
:10269000DF6087FD04C0ACA0BDA0CEA0DFA039A143
:1026A000332341F48CA9972DD40189839A83AB837A
:1026B000BC834FC06CA57DA58EA59FA50E9481619E
:1026C00069837A838B839C836CA17DA18EA19FA15A
:1026D00029813A814B815C810E94ED6218160CF0D1
:1026E00029C20FB6F8948091400D9091410DA091B0
:1026F000420DB091430D0FBE2D893E894F89588DF3
:10270000821B930BA40BB50B89589341A040B0409A
:1027100008F410C2422D5985451B4BA30FB6F894FF
:102720008091400D9091410DA091420DB091430DCB
:102730000FBE898F9A8FAB8FBC8F2D893E894F89B1
:10274000588D821B930BA40BB50B8D879E87AF878B
:10275000B88B6CA57DA58EA59FA50E9481616D8318
:102760007E838F8398876CA17DA18EA19FA12D81EF
:102770003E814F8158850E94DF6088230CF0DFC1C5
:102780000FB6F8948091400D9091410DA091420DAB
:10279000B091430D0FBE298D3A8D4B8D5C8D821B00
:1027A000930BA40BB50B89589341A040B04008F49B
:1027B000C6C10FB6F8948091400D9091410DA09143
:1027C000420DB091430D0FBE8D8B9E8BAF8BB88F9A
:1027D0009AA1992309F49EC18D899E89AF89B88DEC
:1027E000298D3A8D4B8D5C8D821B930BA40BB50B01
:1027F0002D853E854F855889280F391F4A1F5B1F3D
:1028000028A739A74AA75BA72D853E854F855889FC
:10281000281B390B4A0B5B0BCA01B90129853A8584
:102820004B855C850E94916428A539A54AA55BA5C6
:102830000E94F164220D331D441D551D24313105C4
:102840004105510574F484E190E0A0E0B0E089878F
:102850009A87AB87BC8754E1252E312C412C512C13
:1028600023C019012A012C3E3105410551052CF0E8
:102870004BEE242E312C412C512CA0E82A16310489
:10288000410451042CF429863A864B865C860CC0A0
:102890002EEF30E040E050E0221933094409550999
:1028A00029873A874B875C878AE192E00E944E280D
:1028B00089E49DE0B201A1010E94485D85E192E0BA
:1028C0000E944E2889E49DE049855A856B857C8568
:1028D0000E94485D8EE092E00E944E2889E49DE0CF
:1028E000B601A50122E00E94595D87E092E00E94B6
:1028F0004E2889E49DE049815A816B817C8122E0E8
:102900000E94595D89E49DE00E94A15C3AA13330A8
:1029100008F400C169857A858B859C850E94816158
:1029200020E030E040E850E40E94BF637B018C016E
:1029300069817A818B819C81A60195010E94056045
:1029400020ED3FE049E450E40E94BF639B01AC01ED
:10295000C801B7010E94E6603B014C0168A579A55A
:102960008AA59BA50E94816120E030E04AE754E4FB
:102970000E94E6605B016C0181E092E00E944E28BB
:1029800089E49DE0B401A30122E00E94595D8BEF30
:1029900091E00E944E2889E49DE0B601A50122E065
:1029A0000E94595D89E49DE00E94A15CC401B301CD
:1029B0002AE939E949E15FE30E94BF637B018C01A9
:1029C0008CEE91E00E944E2882EE91E00E944E280B
:1029D000C801B70120E030E040E853E40E94BF6343
:1029E0000E9453619B01AC0189E49DE0B90155DD72
:1029F00088ED91E00E944E28C801B701A801970117
:102A00000E940660A60195010E94E66020E030E089
:102A100040E053E40E94BF630E9453619B01AC01FC
:102A200089E49DE0B90139DD8EEC91E00E944E28E9
:102A3000C801B701A60195010E94BF6320E030E004
:102A400040E05EE30E94BF6320E030E040E053E4FA
:102A50000E94BF630E9453619B01AC0189E49DE029
:102A6000B9011BDDC401B3012AE939E949E95EE393
:102A70000E94BF637B018C018BEB91E00E944E288A
:102A800081EB91E00E944E28C801B70120E030E0C0
:102A900040E853E40E94BF630E9453619B01AC0174
:102AA00089E49DE0B901F9DC87EA91E00E944E28B3
:102AB000C801B701A60195010E94E66020E030E060
:102AC00040E053E40E94BF630E9453619B01AC014C
:102AD00089E49DE0B901E1DC8DE991E00E944E2896
:102AE000C801B701A60195010E94BF6320E030E054
:102AF00040E450E40E94E66020E030E040E053E42F
:102B00000E94BF630E9453619B01AC0189E49DE078
:102B1000B901C3DC4985420D4BA35AA15F5F5AA39B
:102B200089819A81AB81BC818CAB792E4D0181E08A
:102B300089A311C0AD82BE82CF82D8860CC0AD827F
:102B4000BE82CF82D88689819A81AB81BC818CABD1
:102B5000792E4D0119A29BA190931403AD80BE80E4
:102B6000CF80D8841AAE19AE6624EE2468A979A95C
:102B70008AA99BA90E9481619B01AC016CA17DA1E6
:102B80008EA19FA10E94ED62181664F06CA17DA138
:102B90008EA19FA120E030E04FE753E40E94ED6258
:102BA00018164CF482E791E00E944E28109201031F
:102BB000109200037FC00FB6F8948091400D909161
:102BC000410DA091420DB091430D0FBE2D8D3E8D54
:102BD0004F8D58A1821B930BA40BB50B815D9740C1
:102BE000A040B04028F10FB6F8948091400D90912C
:102BF000410DA091420DB091430D0FBE8D8F9E8F60
:102C0000AF8FB8A38CE691E00E944E2889E49DE046
:102C10004CA15DA16EA17FA122E00E94595D88E6D2
:102C200091E00E944E2889E49DE06BA170E0ADD94F
:102C30000FB6F8948091400D9091410DA091420DF6
:102C4000B091430D0FBE0FB6F8942091400D309116
:102C5000410D4091420D5091430D0FBE2DAB3EAB47
:102C60004FAB58AF298D3A8D4B8D5C8D821B930BEA
:102C7000A40BB50B2D893E894F89588D821B930B70
:102C8000A40BB50B2DA93EA94FA958AD820F931FD8
:102C9000A41FB51F81589F44A241B04018F089E499
:102CA00091E006C04AA1463008F47ACC86EF90E065
:102CB0000E944E28EA960FB6F894DEBF0FBECDBF35
:102CC000CF91DF911F910F91FF90EF90DF90CF9008
:102CD000BF90AF909F908F907F906F905F904F903C
:102CE0003F902F900895FC01673020F086E18583A6
:102CF00080E00895262F30E060FD02C0663019F4B0
:102D00008DB58E7F02C08DB581608DBD8CB58C7FF9
:102D10008CBD4CB522FD02C090E001C092E036951A
:102D20002795822F8170842B892B8CBD81E008959B
:102D3000FC018481E82FF0E00C949058FC01848120
:102D4000E82FF0E00C948A58DC016EBDFA0120E017
:102D500030E00DB407FEFDCF80818EBD0DB407FEBF
:102D6000FDCF81818EBD2E5F3F4F329682E02030B5
:102D7000380779F70DB407FEFDCF8FEF8EBD0DB488
:102D800007FEFDCF8FEF8EBD0DB407FEFDCF8FEF99
:102D90008EBD0DB407FEFDCF8EB51A968C931A9793
:102DA0008F71853011F481E0089581E115968C933F
:102DB0001597CD01C3DF80E00895FC010FB6F894AC
:102DC0008091400D9091410DA091420DB091430D25
:102DD0000FBEAC013FEF13C00FB6F8948091400DC9
:102DE0009091410DA091420DB091430D0FBE841BF7
:102DF000950B8D52914018F022878FE00DC03EBD9B
:102E00000DB407FEFDCF2EB52F3F31F322872E3FA5
:102E100011F481E008958DE08583CF018FDF80E09C
:102E20000895CF93DF93EC018E818823C9F08FEF53
:102E30008EBD2F8138854FEF04C00DB407FEFDCF46
:102E40004EBD2F5F3F4FC901019781509240A8F3BB
:102E500038872F830DB407FEFDCFCE016FDF1E82B2
:102E6000DF91CF910895DF92EF92FF920F931F931E
:102E7000CF93DF93EC01D62E79018A01D2DFCE0108
:102E800057DF0FB6F8948091400D9091410DA091BD
:102E9000420DB091430D0FBE9C014FEF4EBD0DB4DE
:102EA00007FEFDCF8EB58F3F81F00FB6F89480916D
:102EB000400D9091410DA091420DB091430D0FBE78
:102EC000821B930B8C52914048F38D2D80648EBDF4
:102ED0000DB407FEFDCF28E130E0D801C701022E76
:102EE00004C0B695A795979587950A94D2F78EBD9D
:102EF0000DB407FEFDCF285030408FEF283F380734
:102F000061F7DD2011F485E906C058E0D51611F40B
:102F100087E801C08FEF8EBD0DB407FEFDCF90E0B6
:102F20002FEF2EBD0DB407FEFDCF8EB587FF02C07B
:102F30009150B9F78A87DF91CF911F910F91FF9040
:102F4000EF90DF900895BF92CF92DF92EF92FF92C1
:102F50000F931F938C01B62E69017A0167E320E07D
:102F600030E040E050E07FDFC8016B2DA701960103
:102F70007ADF1F910F91FF90EF90DF90CF90BF907D
:102F80000895CF92DF92EF92FF920F931F93CF930A
:102F9000DF93EC017A018B0169014115510561054F
:102FA000710511F482E150C08B85833039F029E03E
:102FB000EE0CFF1C001F111F2A95D1F7CE0168E10E
:102FC000A801970150DF882311F084E03DC0CE01B5
:102FD0006EEFA601B9DE882309F437C00FB6F89466
:102FE0008091400D9091410DA091420DB091430D03
:102FF0000FBE9C014FEF4EBD0DB407FEFDCF1EB5B9
:103000001F3F89F00FB6F8948091400D9091410DCB
:10301000A091420DB091430D0FBE821B930B8855BA
:10302000924048F31EC0CE016DE020E030E040E069
:1030300050E019DF882339F41EBD0DB407FEFDCF23
:103040008EB5882381F084E18D83CE0177DE80E028
:10305000DF91CF911F910F91FF90EF90DF90CF9074
:10306000089585E1F1CFCE0169DE81E0F1CF8F9245
:103070009F92AF92BF92CF92DF92EF92FF920F9307
:103080001F93CF93DF93EC015A016B0149010115A6
:10309000110509F477C0C801820F931F8150924037
:1030A00008F06CC08E81882371F088819981AA8193
:1030B000BB81481759076A077B0729F48F819885D8
:1030C0008816990608F5A882B982CA82DB828B85A8
:1030D000833039F069E0AA0CBB1CCC1CDD1C6A955E
:1030E000D1F7CE0161E1A6019501BDDE882319F07B
:1030F00083E08D8343C0CE0160DE882309F43EC0A7
:1031000018861F8281E08E838FEF8EBD8F81988518
:103110002FEF05C00DB407FEFDCF2EBD019688151B
:103120009905C0F398878F83D801119720E030E08C
:103130009FEF0BC00DB407FEFDCF8EB5F701E20F78
:10314000F31F80839EBD2F5F3F4F2A173B0790F3ED
:103150000DB407FEFDCF8EB5AE0DBF1D8C932F8134
:103160003885200F311F38872F838985882319F0F0
:103170002050324038F0CE0154DE04C0CE01DEDDF6
:1031800080E001C081E0DF91CF911F910F91FF900E
:10319000EF90DF90CF90BF90AF909F908F90089569
:1031A000EF92FF920F931F93790120E030E000E04F
:1031B00012E05DDF1F910F91FF90EF900895BF9295
:1031C000CF92DF92EF92FF920F931F93CF93DF93F3
:1031D000EC01B62E842F1B8619861E821D824C831D
:1031E0000FB6F8942091400D3091410D4091420D61
:1031F0005091430D0FBE69010E947658CE019EDDAD
:1032000023982B98229A219A209A83E58CBD8DB51C
:103210008E7F8DBD80E09FEF9EBD0DB407FEFDCF7C
:103220008F5F8A30C9F7CE0183DD12C00FB6F894E4
:103230008091400D9091410DA091420DB091430DB0
:103240000FBE8C199D09815D974010F081E05BC035
:10325000CE0160E020E030E040E050E004DE182FD6
:103260008A87813019F7CE0168E02AEA31E040E030
:1032700050E0F9DD82FF02C01B8711C080E02FEF14
:103280002EBD0DB407FEFDCF9EB58F5F8430C1F714
:103290009A879A3A11F082E036C082E08B878B855C
:1032A000823021F0EE24FF24870118C0E12CF12C9C
:1032B000012DF0E41F2F12C00FB6F8948091400D3D
:1032C0009091410DA091420DB091430D0FBE8C190C
:1032D0009D09815D974010F088E015C0CE0169E23C
:1032E000A801970130DE8A87882331F78B858230E9
:1032F00021F5CE016AE320E030E040E050E0B3DDAC
:10330000882331F086E08D83CE0118DD80E01AC07D
:103310008FEF8EBD0DB407FEFDCF8EB5807C803C57
:1033200011F483E08B8780E09FEF9EBD0DB407FE14
:10333000FDCF2EB58F5F8330C1F7CE01FFDCCE010C
:103340006B2DD1DCDF91CF911F910F91FF90EF900A
:10335000DF90CF90BF900895CF93DF93EC01DB0116
:1033600080E090E020E2FD01E80FF91F2083019644
:103370008B309105C1F757E040E021C02E3219F0A3
:1033800087E392E007C05A3019F15AE048E017C0CD
:103390003217F1F0FC01019634913323C9F7541729
:1033A000B8F02132A8F02F3798F4822F81568A3155
:1033B00008F42052FD01E40FF11D20834F5F299195
:1033C0002223E1F690E08C91803219F091E001C067
:1033D00090E0892FDF91CF910895DF92EF92FF92D5
:1033E0000F931F93CF93DF937C01D62EEC0110E057
:1033F00000E088818032D1F0083061F4E091490D1D
:10340000F0914A0D0190F081E02D89E49DE06EE29B
:1034100009951F5FE091490DF0914A0D0190F081EF
:10342000E02D89E49DE0688109951F5F0F5F21967B
:103430000B30F9F6F701838588718031B9F4E0919A
:10344000490DF0914A0D0190F081E02D89E49DE055
:103450006FE20AC0E091490DF0914A0D0190F081B0
:10346000E02D89E49DE060E209951F5F1D1590F352
:10347000DF91CF911F910F91FF90EF90DF90089512
:10348000DF93CF9300D00F92CDB7DEB7282F6AE03D
:103490000E94B064805D8983822F0E94B064905D39
:1034A0009A831B82E091490DF0914A0D0280F381CD
:1034B000E02D89E49DE0BE016F5F7F4F09950F907D
:1034C0000F900F90CF91DF910895EF92FF920F939D
:1034D0001F938C01812F869586958695D1DFE0918B
:1034E000490DF0914A0D39E4E32E3DE0F32E0190B1
:1034F000F081E02DC7016AE30995C80125E09695A2
:1035000087952A95E1F78F73BBDFE091490DF09124
:103510004A0D0190F081E02DC7016AE309950F7112
:103520001070802F880FACDF1F910F91FF90EF90EC
:1035300008956F927F928F929F92AF92BF92CF9297
:10354000DF92EF92FF920F931F93CF93DF93EC01E3
:103550007A018B012C81222309F480C08A899B89FE
:10356000AC89BD8984179507A607B70708F476C00C
:1035700085C0E114F1040105110549F41D821E8284
:103580001F82188619861A861B861C8665C02985A7
:103590003A854B855C85EA8DFB8D858590E00996A3
:1035A000215030404040504039014A01082E04C0AB
:1035B00096948794779467940A94D2F72F5F3F4F3D
:1035C0004F4F5F4F0894E108F108010911095701B5
:1035D000680104C0D694C794B794A7948A95D2F78B
:1035E0000894E11CF11C011D111DA614B704C804A8
:1035F000D90428F0211531054105510549F48E897A
:103600009F89A88DB98D8D839E83AF83B88716C09F
:10361000A618B708C808D90811C04D815E816F810E
:1036200078858A8D9B8D94010E940C260894A108B0
:10363000B108C108D108882331F410C045E0842EB8
:10364000912C8C0E9D1EA114B104C104D10429F744
:10365000E986FA860B871C8781E001C080E0DF9154
:10366000CF911F910F91FF90EF90DF90CF90BF907F
:10367000AF909F908F907F906F900895223009F0C7
:1036800078CFE6CFCF93DF93EC01462F6D857E8513
:103690008F8598890E94F423882319F420E030E074
:1036A0000AC08989282F30E055E0220F331F5A9530
:1036B000E1F7265D3C4FC901DF91CF9108950F934B
:1036C0001F93CF93DF938C01FC0184818823B9F190
:1036D000838187FF32C0C80161E0D4DFEC0100972D
:1036E00071F1F8018481823040F482899389A48940
:1036F000B5898C8F9D8FAE8FBF8FF8018689978992
:10370000A08DB18D9B8F8A8FCD01AA27BB279D8B62
:103710008C8BE0912803F0912903309751F0BE0182
:103720006A5E7F4FCE0148960995888D998D9B8B57
:103730008A8BF80183818F778383F8D701C080E07B
:10374000DF91CF911F910F910895CF93DF93EC01FB
:10375000B6DF882311F01C8281E0DF91CF910895BC
:103760006F927F928F929F92AF92BF92CF92DF9291
:10377000EF92FF920F931F93DF93CF9300D000D06F
:10378000CDB7DEB77C015A016B01DC0114968C9138
:103790001497813009F08CC013968C9181FF88C0FA
:1037A0009BC00097A105B10511F481E082C0F7012B
:1037B0006184728483849484C701B601A501B9DE53
:1037C000882309F475C0D7015A968D919C915B9717
:1037D000A114B104C104D10489F456964D915D91B0
:1037E0006D917C9159970E947E26882309F460C0D0
:1037F000F701168A178A108E118E3DC0D7011596D3
:103800004D915D916D917C9118979E012F5F3F4F77
:103810000E940C26882309F44BC0D7015A96ED91DB
:10382000FC915B9749815A816B817C8187898031CA
:1038300029F088EF9FEFAFEFBFE004C088EF9FEF64
:10384000A0E0B0E0481759076A077B07A0F4CF0152
:103850000E947E26882361F1F701458156816781A8
:103860007085828D938D0FEF1FEF2FEF3FE00E9449
:1038700071258823E9F0D7015296AD92BD92CD9281
:10388000DC92559713968C911397806813968C93BE
:10389000C70115DF882361F0B601A5016A147B0416
:1038A0008C049D0410F4B401A301C70142DE01C0E1
:1038B00080E00F900F900F900F90CF91DF911F91AC
:1038C0000F91FF90EF90DF90CF90BF90AF909F90BF
:1038D0008F907F906F900895F70182899389A489D2
:1038E000B58984179507A607B70708F05ACFE0CF28
:1038F000CF93DF93EC0140E050E060E070E030DF18
:10390000882359F0CE0161E0BDDEFC01009729F06B
:1039100085EE80831C820AD701C080E0DF91CF91C1
:1039200008952F923F924F925F926F927F928F9263
:103930009F92AF92BF92CF92DF92EF92FF920F933E
:103940001F93CF93DF93EC012A018C81882309F424
:10395000C5C08B8180FFC2C0D7C025014E185F084B
:103960004B0175E0272E312C2C0E3D1E3201B0C0CC
:1039700029853A854B855C856FEFA62E61E0B62ED2
:10398000A222B3228C8179018A0199E016950795CC
:10399000F794E7949A95D1F7EA8DFB8D823049F43C
:1039A000428D538D648D758D4E0D5F1D601F711F8F
:1039B0003FC0D480DA94DE20A114B104D9F4DD2014
:1039C000C9F4211531054105510549F48E899F89B6
:1039D000A88DB98D8D839E83AF83B8870BC04D8131
:1039E0005E816F817885CF0191010E940C2688232A
:1039F00009F474C0EA8DFB8D4D815E816F817885FD
:103A00004250504060407040058404C0440F551F30
:103A1000661F771F0A94D2F786859785A089B1899A
:103A2000480F591F6A1F7B1F4D0D511D611D711DD0
:103A300080E092E08A199B0963018615970508F4D6
:103A40006C018B8186FD06C080E0C81682E0D80636
:103A500009F072C08091170190911801A09119018D
:103A6000B0911A01481759076A077B0709F464C027
:103A700080912A0590912B05950186017401F7DA52
:103A8000882361F18C0C9D1C12C09501265D3C4F72
:103A9000A9014C0D5D1DD401F90102C081918D93E6
:103AA000E417F507D9F7E21BF30B8E0E9F1E960164
:103AB00040E050E089859A85AB85BC85820F931FD5
:103AC000A41FB51F89879A87AB87BC876C187D08B0
:103AD0006114710409F04CCFA20102C04FEF5FEFF7
:103AE000CA01DF91CF911F910F91FF90EF90DF906E
:103AF000CF90BF90AF909F908F907F906F905F908E
:103B00004F903F902F900895AA88BB88CC88DD887D
:103B1000E984FA840B851C859A0140E050E0D601C7
:103B2000C5018E199F09A00BB10B82179307A4073B
:103B3000B50708F412CF14CFCB01BA0140E054D638
:103B4000882309F0A2CFCACFCF92DF92EF92FF92E3
:103B50000F931F93DF93CF930F92CDB7DEB76C0116
:103B6000FC018481823068F0E184F284038514854D
:103B7000C601BE016F5F7F4F41E050E0D2DE01978A
:103B800069F020E030E0C9010F90CF91DF911F91E3
:103B90000F91FF90EF90DF90CF900895F60181850F
:103BA0009285A385B4854F96A11DB11D818792870B
:103BB000A387B487F5E016950795F794E794FA95EF
:103BC000D1F78E2D8F70282F30E0E5E0220F331FC4
:103BD000EA95E1F7265D3C4FD6CFCF92DF92EF9288
:103BE000FF920F936C0109E4E02E0DE0F02EAC0182
:103BF000452F552746954454584F60E070E0C70163
:103C00002AE000E00E94BD5CE091490DF0914A0D70
:103C10000190F081E02DC7016DE20995C601A5E094
:103C200096958795AA95E1F78F702ADCE091490D6A
:103C3000F0914A0D0190F081E02DC7016DE20995E8
:103C40008C2D8F711DDC0F91FF90EF90DF90CF9046
:103C500008950F931F93CF93DF93EC018B018C8119
:103C6000882309F041C0FB0187898031B1F482E0EB
:103C70008C831E8A1F8A188E198E808D918DA0E0EC
:103C8000B0E025E0880F991FAA1FBB1F2A95D1F726
:103C90008A8B9B8BAC8BBD8B15C0803229F583E062
:103CA0008C83FB01428D538D648D758D4E8B5F8BA4
:103CB000688F798F9E012E5E3F4FC8010E94D526E6
:103CC000882391F01B8F0A8F81E08B831D821E82D7
:103CD0001F82188619861A861B861C861D861E86DC
:103CE0001F86188A198A01C080E0DF91CF911F9149
:103CF0000F9108951F93CF93DF93EC01142FE62FBC
:103D0000F0E045E0EE0FFF1F4A95E1F7E65DFC4F5E
:103D10008385817121F0812F827409F053C0698BF2
:103D20008091170190911801A0911901B0911A0189
:103D30008D879E87AF87B88B84899589A0E0B0E096
:103D4000BC0155274427828D938DA0E0B0E0482B1D
:103D5000592B6A2B7B2B4E8B5F8B688F798F8385DA
:103D600090E088719070009751F4848D958DA68DA8
:103D7000B78D8A8B9B8BAC8BBD8B81E00CC0409741
:103D800009F59E012E5E3F4F8A8D9B8D0E94D526A0
:103D90008823C1F084E08C83812F8F708B831D82F8
:103DA0001E821F82188619861A861B861C8616FD9F
:103DB00002C081E008C0CE0140E050E060E070E069
:103DC000CFDC01C080E0DF91CF911F910895DF9299
:103DD000EF92FF920F931F93CF93DF938C01EB0130
:103DE0007A01D22EFC018481882329F5822F8073E9
:103DF000803309F18A8D9B8D938F828F65E0440F0C
:103E0000551F6A95E1F760E070E0CE0192DB8823F0
:103E100091F0CE0199DEFC01009769F08081882342
:103E200051F0853E41F08E3231F06E2D6F70C80139
:103E30004D2D60DF01C080E0DF91CF911F910F9188
:103E4000FF90EF90DF9008952F923F924F925F92F4
:103E50006F927F928F929F92AF92BF92CF92DF929A
:103E6000EF92FF920F931F93DF93CF93CDB7DEB7FF
:103E70006F970FB6F894DEBF0FBECDBF6C016D8F8C
:103E80004E8FFC01158216821782108611861286CB
:103E900013861486862F90E053E0452E512C48223D
:103EA000592231E0632E712C6822792224E0822E7F
:103EB000912C882299221E010894211C311C242F48
:103EC0002E5F2F8F02E0A02EB12CA822B92290C025
:103ED000F7018081882309F491C0853E09F488C0E8
:103EE0008E3209F485C0838583FD82C010E00CC04A
:103EF000E091490DF0914A0D0190F081E02D89E4A7
:103F00009DE060E209951F5FFE8D1F1789F7411440
:103F1000510411F460E001C06EE0C7015EDA611483
:103F2000710499F0F701808D918D57DEE091490D74
:103F3000F0914A0D0190F081E02D89E49DE060E26E
:103F40000995F70186899789C0DAF7018385887119
:103F50008031C9F0A114B104B1F0E091490DF091A4
:103F60004A0D0190F081E02D89E49DE060E2099521
:103F7000F701448D558D668D778D89E49DE02AE0AB
:103F800000E00E94BD5C89E49DE00E94A15C811478
:103F9000910471F1F70183858871803149F5F6014B
:103FA00081859285A385B48515E0B695A7959795EB
:103FB00087951A95D1F78C0180E292E09A838983E4
:103FC0001D82A80141505040C101B60121E0FFDE31
:103FD000882321F0C1016D8D4F8D36DFA5E0000FE4
:103FE000111FAA95E1F7A80160E070E0C601A1DA0F
:103FF000C601AADD7C01009709F06ACF6F960FB663
:10400000F894DEBF0FBECDBFCF91DF911F910F910E
:10401000FF90EF90DF90CF90BF90AF909F908F90E8
:104020007F906F905F904F903F902F900895CF9327
:10403000DF93EC019C012B5F3F4F8A8D9B8D41E00C
:1040400050E060E070E01FD78823A1F08E899F893F
:10405000A88DB98D0097A105B10559F48D819E8178
:10406000AF81B8858E8B9F8BA88FB98F8B8180682D
:104070008B8381E0DF91CF9108952F923F924F92F1
:104080005F927F928F929F92AF92BF92CF92DF9278
:10409000EF92FF920F931F93DF93CF9300D000D046
:1040A00000D0CDB7DEB76C01162F072F5E834D838E
:1040B000DC0114968C911497813009F06FC113962E
:1040C0008C9181FF6BC189C1F60142895389648952
:1040D000758981859285A385B48584179507A60780
:1040E000B70729F0C60125DA882309F457C1812FC3
:1040F000902F9C0129012D803E8015C1D6015A9632
:10410000ED91FC915B97DA01C90179E0B695A7952D
:10411000979587957A95D1F774807A9478226FEF86
:10412000862E61E0962E82229322772009F04EC0DF
:104130008114910409F04AC0D60115964D915D9104
:104140006D917C911897411551056105710581F4B8
:1041500056968D919D910D90BC91A02D0097A10533
:10416000B10551F1F60185839683A783B0872EC0F0
:10417000CF019E012F5F3F4F4FD5882319F440E0B8
:1041800050E012C129813A814B815C81D6015A9657
:10419000ED91FC915B978789803129F088EF9FEF43
:1041A000AFEFBFE004C088EF9FEFA0E0B0E02817BA
:1041B00039074A075B0728F0C60139DF882331F445
:1041C000EDC0F601258336834783508780E092E077
:1041D0008819990951018215930508F45C01D601EB
:1041E0005A96ED91FC915B971596ED90FD900D918F
:1041F0001C9118978EEF9FEFAFEFBFEFE80EF91EFF
:104200000A1F1B1F058404C0EE0CFF1C001F111F9A
:104210000A94D2F786859785A089B189E80EF91EA0
:104220000A1F1B1FE70CF11C011D111D90E0A916B0
:1042300092E0B90651F58091170190911801A09173
:104240001901B0911A018E159F05A007B10761F4FD
:104250008FEF9FEFAFEFBFEF80931701909318019F
:10426000A0931901B0931A0180912A0590912B0512
:10427000B801A70192010E94C117882309F48EC0DA
:10428000A0E0B2E04A0E5B1E3CC08114910401F52F
:10429000F601218532854385548582899389A489D5
:1042A000B589281739074A075B0790F03FD2882362
:1042B00009F474C0E0921701F092180100931901FB
:1042C00010931A0180912C05816080932C0507C002
:1042D000C801B70141E088D2882309F45FC0940186
:1042E000265D3C4FA9014A0D5B1DD201F90102C0B8
:1042F0008D918193E417F507D9F7E21BF30B4E0E6E
:104300005F1E2A183B08950140E050E0F6018185C8
:104310009285A385B485820F931FA41FB51F818743
:104320009287A387B487D60119962D913D914D911F
:104330005C911C972114310409F0E0CE52968D91C6
:104340009D910D90BC91A02D82179307A407B507EE
:1043500048F4F601228B338B448B558B8381806824
:10436000838311C08091280390912903892B59F0F0
:104370008D819E81892B39F0D60113968C911397EC
:10438000806813968C93F601838183FF04C0C60175
:1043900096D9882319F04D815E8106C081E0D6014F
:1043A00012968C934FEF5FEFCA0126960FB6F894E2
:1043B000DEBF0FBECDBFCF91DF911F910F91FF9058
:1043C000EF90DF90CF90BF90AF909F908F907F90B5
:1043D0005F904F903F902F90089582FD75CE87CECD
:1043E000DB010D900020E9F71197A61BB70BAD017B
:1043F00044CEDF93CF930F92CDB7DEB76983BE0172
:104400006F5F7F4F41E050E038DE0F90CF91DF913A
:104410000895DF92EF92FF920F931F93CF93DF9354
:10442000EC0105DE882309F44DC0EA8DFB8DED809B
:10443000FE800F8118858EEF9FEFAFEFBFEFE80E84
:10444000F91E0A1F1B1F058404C0EE0CFF1C001F71
:10445000111F0A94D2F786859785A089B189E80E45
:10446000F91E0A1F1B1FD4800894E108F1080109F6
:1044700011090AC0C801B7016D0D711D811D911D83
:1044800090D18823F9F0DA94DD20A1F7EA8DFB8D35
:1044900020E032E040E050E0058404C0220F331FEA
:1044A000441F551F0A94D2F78A899B89AC89BD891C
:1044B000820F931FA41FB51F8A8B9B8BAC8BBD8B68
:1044C00081E001C080E0DF91CF911F910F91FF90BB
:1044D000EF90DF9008956F927F928F929F92AF92AC
:1044E000BF92CF92DF92EF92FF920F931F93DF93D1
:1044F000CF93CDB7DEB72B970FB6F894DEBF0FBEC4
:10450000CDBF5C016B01822EDC0114968C91882357
:1045100009F0CDC0CA018E010F5F1F4FB8010E9484
:10452000AC19882309F4C3C0F601828D938DD5019F
:104530005B969C938E935A971582168217821086EB
:10454000D60119961D921D921D921C921C979924BA
:10455000380140C0C601F8DAFC01009709F4A7C091
:10456000A5E016950795F794E794AA95D1F71E2D27
:104570001F708081882311F0853ED1F4992091F439
:10458000D50151961C935197209117013091180134
:104590004091190150911A011D962D933D934D9311
:1045A0005C9350978081882399F49924939421C037
:1045B000C301BF014BE050E00E94B20A009751F4E2
:1045C000882D8073803309F472C0C501612F6CC0DF
:1045D00099249394F601E184F284038514858289F9
:1045E0009389A489B589E816F9060A071B0708F418
:1045F000B1CF882D8271823109F059C0992039F0EC
:10460000C50161E03FD88C01009781F450C0D6010C
:1046100014968C91823009F44AC0C601FADE8823D0
:1046200009F445C0F501118A0AE213E080E2D801DD
:104630001D928A95E9F7D801FE0131968BE0019031
:104640000D928150E1F7E0912803F0912903309712
:1046500039F0B801625F7F4FC8014096099509C0E3
:1046600081E298E2F801918B808B80E098E0978757
:104670008687D80150968D919C91519753969C9323
:104680008E93529759969C938E9358971E968D9120
:104690009C911F9757969C938E93569747D088234B
:1046A00031F0C501F5016189482D24DB01C080E0AE
:1046B0002B960FB6F894DEBF0FBECDBFCF91DF9122
:1046C0001F910F91FF90EF90DF90CF90BF90AF9030
:1046D0009F908F907F906F9008950F931F93DF931B
:1046E000CF93CDB7DEB76C970FB6F894DEBF0FBE91
:1046F000CDBF9C01AB0180E292E09A8389831D8249
:104700008E010F5F1F4FC801B90122E0E4DE88234C
:1047100011F0C801EDD86C960FB6F894DEBF0FBE4D
:10472000CDBFCF91DF911F910F91089580912C05FE
:10473000882399F140911701509118016091190156
:1047400070911A0180912A0590912B052AE233E09D
:104750000E94C117882319F140912D0550912E0513
:1047600060912F0570913005411551056105710566
:1047700091F080912A0590912B052AE233E00E9466
:10478000C117882361F010922D0510922E0510920A
:104790002F051092300510922C0581E0089580E0DD
:1047A0000895EF92FF920F931F937B018C01BEDF60
:1047B0008823A9F0EAE2F3E0119285E0EA32F807F3
:1047C000D9F7E0921701F0921801009319011093A4
:1047D0001A0180912C05816080932C0581E01F9146
:1047E0000F91FF90EF900895DF92EF92FF920F9359
:1047F0001F937B018C01D42E809117019091180199
:10480000A0911901B0911A018E159F05A007B1075B
:10481000B9F08CDF8823D9F080912A0590912B057F
:10482000B801A7012AE233E00E94D018882379F06A
:10483000E0921701F09218010093190110931A01E8
:1048400080912C058D2980932C0581E001C080E0AA
:104850001F910F91FF90EF90DF9008958F929F929C
:10486000AF92BF92CF92DF92EF92FF920F931F937E
:10487000CF93DF936C01142F70932B0560932A055F
:10488000442321F48824992454013FC0453008F082
:104890001AC160E070E080E090E040E0A5DF88238E
:1048A00009F411C1C12FD0E02197FE0174E0EE0F91
:1048B000FF1F7A95E1F7E65DFC4FE254FE4F8081E1
:1048C000EE5BF14090E08F779070892B09F0FBC090
:1048D000E653FE4F80819181A281B3818436910598
:1048E000A105B10508F4EFC064E0CC0FDD1F6A95A7
:1048F000E1F7C051DB4F88809980AA80BB8081148A
:104900009104A104B10409F4DEC0C501B40140E082
:104910006BDF882309F4D7C080913503909136036B
:104920008050924009F0CFC020913A03222309F42D
:10493000CAC08091380390913903892B09F4C3C010
:1049400080913703882309F4BEC0F601228B809141
:1049500037038483158661E070E007C04F5FF6017E
:1049600045874150483008F0AEC0F6014585848146
:1049700090E09B01042E02C0220F331F0A94E2F73D
:104980008217930759F72091400330914103211575
:10499000310519F040E050E008C020914E033091FD
:1049A0004F034091500350915103F6012583368304
:1049B00047835087E0903803F090390300E010E01F
:1049C000E80CF91C0A1D1B1DE38AF48A058B168B63
:1049D00080913B0390913C03918F808F60913A03CB
:1049E00070E080E090E00E9491646E0D7F1D801F5A
:1049F000911FF601628F738F848F958F20913B03F7
:104A000030913C0355E0220F331F5A95E1F72150B6
:104A10003E4F232F3327269540E050E0260F371FC7
:104A2000481F591F26873787408B518B80913D0344
:104A300090913E03009719F0A0E0B0E008C080918B
:104A40004A0390914B03A0914C03B0914D03850113
:104A50007401E21AF30A040B150BA8019701280F41
:104A6000391F4A1F5B1FF601058404C05695479500
:104A7000379527950A94D2F7218732874387548741
:104A8000253FFFE03F07F0E04F07F0E05F0710F43D
:104A90008CE006C0255F3F4F4040504028F480E145
:104AA000F601878B81E010C08091560390915703E7
:104AB000A0915803B0915903F601828F938FA48F70
:104AC000B58F80E2EECF80E0DF91CF911F910F9103
:104AD000FF90EF90DF90CF90BF90AF909F908F901E
:104AE00008954F925F926F927F928F929F92AF92B2
:104AF000BF92CF92DF92EF92FF920F931F93CF93CB
:104B0000DF93EC016A017B01280139014230510534
:104B10006105710508F46EC089859A85AB85BC85F1
:104B20000196A11DB11D84179507A607B70708F4C4
:104B300061C02B893C894D895E898F89803129F438
:104B400099278F2D7E2D6D2D09C0C701B60117E065
:104B500096958795779567951A95D1F74B015C01E6
:104B6000820E931EA41EB51E80911701909118010C
:104B7000A0911901B0911A0188169906AA06BB06E0
:104B800031F0C501B40140E02FDE882399F18F890F
:104B9000803149F4F601F070EE0FFF1FE65DFC4F27
:104BA000518240820DC0F601EF77F070EE0FFF1FCB
:104BB000EE0FFF1FE65DFC4F4082518262827382DE
:104BC00080912C05816080932C058A89823080F049
:104BD0008D819E81AF81B885880E991EAA1EBB1E4D
:104BE00080922D0590922E05A0922F05B09230054F
:104BF00081E001C080E0DF91CF911F910F91FF9084
:104C0000EF90DF90CF90BF90AF909F908F907F906C
:104C10006F905F904F900895CF92DF92EF92FF9246
:104C20000F931F93CF93DF93EC017A018B016901FE
:104C300089859A85AB85BC850196A11DB11D841718
:104C40009507A607B70708F44FC02B893C894D8903
:104C50005E898F89803129F49927812F702F6F2DDC
:104C600009C0C801B701E7E09695879577956795E4
:104C7000EA95D1F7260F371F481F591F809117015A
:104C800090911801A0911901B0911A0128173907C4
:104C90004A075B0731F0CA01B90140E0A5DD88236E
:104CA00019F18F89803159F4F701F070EE0FFF1F71
:104CB000E65DFC4F80819181A0E0B0E00EC0F7017D
:104CC000EF77F070EE0FFF1FEE0FFF1FE65DFC4F5A
:104CD00080819181A281B381BF70F601808391832D
:104CE000A283B38381E001C080E0DF91CF911F9167
:104CF0000F91FF90EF90DF90CF900895AF92BF9209
:104D0000CF92DF92EF92FF920F931F93DF93CF9397
:104D100000D000D0CDB7DEB76C017A018B0182E004
:104D200090E0A0E0B0E0F60180839183A283B3839A
:104D30005E010894A11CB11CC601B801A701950130
:104D40006BDF882311F1C601B801A70100E010E074
:104D500020E030E0C6DE8823C1F0E980FA800B81D4
:104D60001C81F6018789803129F088EF9FEFAFEF32
:104D7000BFE004C088EF9FEFA0E0B0E0E816F906BE
:104D80000A071B07C8F281E001C080E00F900F9076
:104D90000F900F90CF91DF911F910F91FF90EF90A7
:104DA000DF90CF90BF90AF9008954F925F926F9237
:104DB0007F928F929F92AF92BF92CF92DF92EF92AB
:104DC000FF920F931F93DF93CF9300D000D0CDB706
:104DD000DEB76C0149835A836B837C833901EE24EF
:104DE000FF2487012E010894411C511C812CA2E054
:104DF0009A2EA12CB12C49815A816B817C81C601EC
:104E000092010ADF882351F1D501C401F60105841E
:104E100004C0880F991FAA1FBB1F0A94D2F7E80E7F
:104E2000F91E0A1F1B1F29813A814B815C818789EA
:104E3000803129F088EF9FEFAFEFBFE004C088EF2B
:104E40009FEFA0E0B0E0281739074A075B0798F208
:104E5000F301E082F1820283138381E00F900F90CF
:104E60000F900F90CF91DF911F910F91FF90EF90D6
:104E7000DF90CF90BF90AF909F908F907F906F907A
:104E80005F904F9008952F923F924F925F926F9252
:104E90007F928F929F92AF92BF92CF92DF92EF92CA
:104EA000FF920F931F93DF93CF93CDB7DEB72F976A
:104EB0000FB6F894DEBF0FBECDBF1C014A875B87DB
:104EC0006C877D873F872E87D9010D911D912D918C
:104ED0003C91011511052105310549F048015901A1
:104EE0000894811C911CA11CB11C198610C0FC01E6
:104EF00080809180A280B38019868A859B85AC854D
:104F0000BD850197A105B10511F491E09987D10103
:104F100019968D919D910D90BC91A02D0196A11D8A
:104F2000B11D8D839E83AF83B887750164014424CE
:104F3000552432018E010F5F1F4FF101818592854B
:104F4000A385B485481659066A067B0608F08CC00E
:104F50008D819E81AF81B8858C159D05AE05BF05FD
:104F600050F482E0882E912CA12CB12CB2E0CB2EF3
:104F7000D12CE12CF12CC101B701A60198014CDE26
:104F8000882309F471C089819A81AB81BC81A70112
:104F900096012F5F3F4F4F4F5F4F0097A105B1051F
:104FA00019F049015A010DC0281939094A095B094C
:104FB0008A859B85AC85BD85281739074A075B071D
:104FC00059F00894411C511C611C711C0894C11CAF
:104FD000D11CE11CF11CB1CFC101A601B7010FEF3B
:104FE0001FEF2FEF3FE07DDD882391F43DC02601C8
:104FF000370108944108510861087108C101B301E3
:10500000A201970186016DDD882371F173016201B0
:105010008C149D04AE04BF0450F3AE85BF854D9142
:105020005D916D917C91411551056105710531F0DE
:10503000C1019501840155DD8823B1F0EE85FF851E
:1050400080829182A282B382F985FF2359F008946D
:10505000811C911CA11CB11CD1018D929D92AD921D
:10506000BC92139781E001C080E02F960FB6F894B0
:10507000DEBF0FBECDBFCF91DF911F910F91FF908B
:10508000EF90DF90CF90BF90AF909F908F907F90E8
:105090006F905F904F903F902F900895CF93DF9344
:1050A000EC010AC0E091490DF0914A0D0190F081A8
:1050B000E02D89E49DE00995FE0121966491662327
:1050C00089F7DF91CF9108950FB6F8948091400D44
:1050D0009091410DA091420DB091430D0FBE809370
:1050E000E9079093EA07A093EB07B093EC07E091F0
:1050F000DC07F0E0EA52F84F8081882319F487E456
:105100009AE0CCCF08959091660880916508981731
:1051100031F12091660830E01CC0822F90E0FC0144
:1051200043E0EE0FFF1F4A95E1F7E80FF91F83E018
:10513000EE0FFF1F8A95E1F7E156F74F80819181CD
:10514000A281B3810097A105B10509F03F5F2F5FF0
:105150002F7080916508281701F7332309F4479AC7
:1051600008951F920F920FB60F920BB60F92112453
:105170006F927F928F929F92AF92BF92CF92DF9267
:10518000EF92FF920F931F932F933F934F935F9351
:105190006F937F938F939F93AF93BF93CF93DF933F
:1051A000EF93FF938091670890916808892B09F02D
:1051B0005DC19091650880916608981719F4C0E068
:1051C000D0E014C08091660890E028E430E0829F2F
:1051D000E001839FD00D929FD00D1124C956D74F67
:1051E000C95BDF4F81E08883C754D040D093680803
:1051F000C0936708209709F433C110929108109268
:10520000920810929308109294082BAD3CAD309305
:10521000900820938F0845E72133340718F020E3E6
:1052200035E704C05EE42132350730F03695279526
:105230003695279584E007C067E22131360730F0C4
:105240003695279582E080938A0808C081E0809394
:105250008A082032310510F420E230E0B9016052B2
:10526000704088E060307807E8F0472F50E0440F46
:10527000551F440F551F495B5D4F9A012E5F3F4FED
:10528000F901859194919C01AA27639FC001629FB7
:10529000810D9A1F06948A1F9A1F1124FA014591C5
:1052A00054911EC0CB01969587958C7F895B994F51
:1052B000FC0145915491FC01329625913491862F41
:1052C00090E087709070BC01269FC001279F900DD1
:1052D000369F900D1124A3E096958795AA95E1F746
:1052E000481B590B4436510510F444E650E0CA01FE
:1052F000A0E0B0E080938B0890938C08A0938D0879
:10530000B0938E0850938900409388002FA938AD40
:1053100075E72133370718F020E335E704C08EE442
:105320002132380730F0369527953695279584E059
:1053300007C097E22131390730F03695279582E092
:1053400080938A0808C081E080938A082032310562
:1053500010F420E230E0B90160527040E8E06030C3
:105360007E07E8F0472F50E0440F551F440F551FAC
:10537000495B5D4F9A012E5F3F4FF90185919491F2
:105380009C01AA27639FC001629F810D9A1F06940A
:105390008A1F9A1F1124FA01459154911EC0CB0116
:1053A000969587958C7F895B994FFC014591549127
:1053B000FC01329625913491862F90E08770907091
:1053C000BC01269FC001279F900D369F900D112490
:1053D00033E0969587953A95E1F7481B590B44368B
:1053E000510510F444E650E0509396084093950818
:1053F00088899989AA89BB89B695A7959795879534
:10540000B095A095909581959F4FAF4FBF4F8093DA
:10541000690890936A08A0936B08B0936C08809316
:105420006D0890936E08A0936F08B09370088093F6
:10543000710890937208A0937308B09374088093D6
:10544000750890937608A0937708B0937808109227
:10545000790810927A0810927B0810927C0806C096
:1054600080ED97E09093890080938800C091670851
:10547000D0916808209709F49DC388A180937D0886
:1054800080FF2EC01198639B23C080917E088823E3
:1054900009F188819981AA81BB81181619061A061B
:1054A0001B06C4F480918905882321F481E0809350
:1054B0007F0813C088899989AA89BB898093790854
:1054C00090937A08A0937B08B0937C0881E005C094
:1054D00080E001C081E010927F0880937E0803C0C5
:1054E000119A10927F0880917D0881FF2FC0139838
:1054F00083B190E081709070282F882311F1809102
:1055000080088823F1F08C819D81AE81BF811816BF
:1055100019061A061B06ACF480918905882321F42C
:1055200081E0809381080FC088899989AA89BB8905
:105530008093790890937A08A0937B08B0937C08B5
:1055400002C0109281082093800803C0139A109221
:10555000810880917D0882FF2EC01598649B23C02E
:1055600080918208882309F188859985AA85BB8561
:10557000181619061A061B06C4F48091890588239B
:1055800021F481E08093830813C088899989AA89CE
:10559000BB898093790890937A08A0937B08B09395
:1055A0007C0881E005C080E001C081E010928308A2
:1055B0008093820803C0159A1092830880917D0819
:1055C00083FF1BC01798E0906908F0906A0800916B
:1055D0006B0810916C08A0907108B0907208C09090
:1055E0007308D09074086090750870907608809069
:1055F00077089090780860E0DAC0179AE4CF888145
:105600009981AA81BB81E80EF91E0A1F1B1F1E1477
:105610001F0410061106FCF480917F082091840875
:1056200030918508882341F42115310519F0215066
:10563000304004C0109A06C02F5F3F4F309385085A
:105640002093840888899989AA89BB89E81AF90A6C
:105650000A0B1B0B10988C819D81AE81BF8120911C
:105660006D0830916E0840916F0850917008820F5C
:10567000931FA41FB51F80936D0890936E08A0938D
:105680006F08B0937008181619061A061B067CF5E9
:10569000809181082091860830918708882341F401
:1056A0002115310519F02150304004C0129A06C06E
:1056B0002F5F3F4F309387082093860880916D08B5
:1056C00090916E08A0916F08B0917008288939896F
:1056D0004A895B89821B930BA40BB50B80936D08E1
:1056E00090936E08A0936F08B09370081298888505
:1056F0009985AA85BB85A80EB91ECA1EDB1E1A1481
:105700001B041C041D04FCF480918308209188086C
:1057100030918908882341F42115310519F0215071
:10572000304004C0149A06C02F5F3F4F3093890861
:105730002093880888899989AA89BB89A81AB90AF7
:10574000CA0ADB0A14988C859D85AE85BF85680ED4
:10575000791E8A1E9B1E161417041804190454F48B
:10576000169A88899989AA89BB89681A790A8A0A46
:105770009B0A16988091790890917A08A0917B08ED
:10578000B0917C080196A11DB11D8093790890937A
:105790007A08A0937B08B0937C08288939894A89C4
:1057A0005B8982179307A407B50730F46F5F809178
:1057B0008A0868170CF423CFE0926908F0926A080F
:1057C00000936B0810936C08A0927108B092720855
:1057D000C0927308D092740860927508709276082F
:1057E00080927708909278082091790830917A0811
:1057F00040917B0850917C088C899D89AE89BF8936
:1058000082179307A407B50708F4D1C0E0908B086E
:10581000F0908C0800918D0810918E08AC8CBD8C96
:10582000CE8CDF8CA8019701C601B501AA27279F5E
:10583000B12D389FF001489FF00D479FE00DF11DFD
:10584000289FB00DE11DFA1F379FB00DE11DFA1F13
:10585000469FB00DE11DFA1F369FB10DEA1FFA1FDA
:10586000B695EA1FFA1F11248BAD9CAD8E0F9F1FBA
:105870009093900880938F082FA938AD49AD5AAD09
:10588000A0E0B0E0281739074A075B0724F43093FB
:10589000900820938F0820918F083091900875E729
:1058A0002133370718F020E335E704C08EE42132B6
:1058B000380730F0369527953695279584E007C050
:1058C00097E22131390730F03695279582E08093B1
:1058D0008A0808C081E080938A082032310510F4DC
:1058E00020E230E0B90160527040E8E060307E07AD
:1058F000E8F0472F50E0440F551F440F551F495BF8
:105900005D4F9A012E5F3F4FF901859194919C0163
:10591000AA27639FC001629F810D9A1F06948A1F68
:105920009A1F1124FA01459154911EC0CB019695FE
:1059300087958C7F895B994FFC0145915491FC01BF
:10594000329625913491862F90E087709070BC013B
:10595000269FC001279F900D369F900D1124B3E024
:1059600096958795BA95E1F7481B590B4436510532
:1059700010F444E650E050938900409388009A0167
:1059800040E050E080918B0890918C08A0918D08A8
:10599000B0918E08820F931FA41FB51F80938B08B0
:1059A00090938C08A0938D08B0938E08E2C0888DE8
:1059B000998DAA8DBB8D82179307A407B50708F0B0
:1059C000D0C0609191087091920880919308909155
:1059D00094082C8D3D8D4E8D5F8DAA27639FB12D30
:1059E000749FF001849FF00D839FE00DF11D649F73
:1059F000B00DE11DFA1F739FB00DE11DFA1F829FCC
:105A0000B00DE11DFA1F729FB10DEA1FFA1FB69586
:105A1000EA1FFA1F112480918F08909190088E1729
:105A20009F0728F4EF9628813981EF9703C09C01E6
:105A30002E1B3F0BEF96488159816A817B81EF973E
:105A4000C901A0E0B0E084179507A607B7070CF4DA
:105A50009A0175E72133370718F020E335E704C0D2
:105A60008EE42132380730F0369527953695279504
:105A700084E007C097E22131390730F03695279549
:105A800082E080938A0808C081E080938A082032EF
:105A9000310510F420E230E0B90160527040E8E0D6
:105AA00060307E07E8F0472F50E0440F551F440F49
:105AB000551F495B5D4F9A012E5F3F4FF90185915C
:105AC00094919C01AA27639FC001629F810D9A1F38
:105AD00006948A1F9A1F1124FA01459154911EC001
